{
  "_format": "hh-sol-artifact-1",
  "contractName": "DAO",
  "sourceName": "contracts/dao.sol",
  "abi": [
    {
      "inputs": [
        {
          "internalType": "address",
          "name": "_IUpdate",
          "type": "address"
        },
        {
          "internalType": "address",
          "name": "_IVote",
          "type": "address"
        }
      ],
      "stateMutability": "nonpayable",
      "type": "constructor"
    },
    {
      "anonymous": false,
      "inputs": [
        {
          "indexed": true,
          "internalType": "address",
          "name": "to",
          "type": "address"
        },
        {
          "indexed": true,
          "internalType": "uint256",
          "name": "index",
          "type": "uint256"
        },
        {
          "indexed": true,
          "internalType": "uint256",
          "name": "leaf",
          "type": "uint256"
        }
      ],
      "name": "Update",
      "type": "event"
    },
    {
      "inputs": [
        {
          "internalType": "uint256[2]",
          "name": "a",
          "type": "uint256[2]"
        },
        {
          "internalType": "uint256[2][2]",
          "name": "b",
          "type": "uint256[2][2]"
        },
        {
          "internalType": "uint256[2]",
          "name": "c",
          "type": "uint256[2]"
        },
        {
          "internalType": "uint256",
          "name": "newRoot",
          "type": "uint256"
        },
        {
          "internalType": "uint256",
          "name": "newLeaf",
          "type": "uint256"
        }
      ],
      "name": "addPower",
      "outputs": [],
      "stateMutability": "payable",
      "type": "function"
    },
    {
      "inputs": [],
      "name": "currentIndex",
      "outputs": [
        {
          "internalType": "uint256",
          "name": "",
          "type": "uint256"
        }
      ],
      "stateMutability": "view",
      "type": "function"
    },
    {
      "inputs": [],
      "name": "currentRoot",
      "outputs": [
        {
          "internalType": "uint256",
          "name": "",
          "type": "uint256"
        }
      ],
      "stateMutability": "view",
      "type": "function"
    },
    {
      "inputs": [],
      "name": "electionID",
      "outputs": [
        {
          "internalType": "uint256",
          "name": "",
          "type": "uint256"
        }
      ],
      "stateMutability": "view",
      "type": "function"
    },
    {
      "inputs": [
        {
          "internalType": "uint256",
          "name": "",
          "type": "uint256"
        },
        {
          "internalType": "uint256",
          "name": "",
          "type": "uint256"
        }
      ],
      "name": "electionPoints",
      "outputs": [
        {
          "internalType": "uint256",
          "name": "",
          "type": "uint256"
        }
      ],
      "stateMutability": "view",
      "type": "function"
    },
    {
      "inputs": [
        {
          "internalType": "uint256",
          "name": "",
          "type": "uint256"
        }
      ],
      "name": "electionRoots",
      "outputs": [
        {
          "internalType": "uint256",
          "name": "",
          "type": "uint256"
        }
      ],
      "stateMutability": "view",
      "type": "function"
    },
    {
      "inputs": [
        {
          "internalType": "uint256",
          "name": "optionsNumber",
          "type": "uint256"
        }
      ],
      "name": "genElection",
      "outputs": [],
      "stateMutability": "nonpayable",
      "type": "function"
    },
    {
      "inputs": [
        {
          "internalType": "address",
          "name": "",
          "type": "address"
        }
      ],
      "name": "index",
      "outputs": [
        {
          "internalType": "uint256",
          "name": "",
          "type": "uint256"
        }
      ],
      "stateMutability": "view",
      "type": "function"
    },
    {
      "inputs": [
        {
          "internalType": "uint256",
          "name": "",
          "type": "uint256"
        },
        {
          "internalType": "uint256",
          "name": "",
          "type": "uint256"
        }
      ],
      "name": "nullifiers",
      "outputs": [
        {
          "internalType": "bool",
          "name": "",
          "type": "bool"
        }
      ],
      "stateMutability": "view",
      "type": "function"
    },
    {
      "inputs": [
        {
          "internalType": "address",
          "name": "",
          "type": "address"
        }
      ],
      "name": "power",
      "outputs": [
        {
          "internalType": "uint256",
          "name": "",
          "type": "uint256"
        }
      ],
      "stateMutability": "view",
      "type": "function"
    },
    {
      "inputs": [
        {
          "internalType": "uint256[2]",
          "name": "a",
          "type": "uint256[2]"
        },
        {
          "internalType": "uint256[2][2]",
          "name": "b",
          "type": "uint256[2][2]"
        },
        {
          "internalType": "uint256[2]",
          "name": "c",
          "type": "uint256[2]"
        },
        {
          "internalType": "uint256",
          "name": "id",
          "type": "uint256"
        },
        {
          "internalType": "uint256",
          "name": "points",
          "type": "uint256"
        },
        {
          "internalType": "uint256",
          "name": "option",
          "type": "uint256"
        },
        {
          "internalType": "uint256",
          "name": "nullifier",
          "type": "uint256"
        }
      ],
      "name": "vote",
      "outputs": [],
      "stateMutability": "nonpayable",
      "type": "function"
    }
  ],
  "bytecode": "0x60806040523480156200001157600080fd5b5060405162001410380380620014108339818101604052810190620000379190620000ff565b81600760006101000a81548173ffffffffffffffffffffffffffffffffffffffff021916908373ffffffffffffffffffffffffffffffffffffffff16021790555080600860006101000a81548173ffffffffffffffffffffffffffffffffffffffff021916908373ffffffffffffffffffffffffffffffffffffffff1602179055507f2dee93c5a666459646ea7d22cca9e1bcfed71e6951b953611d11dda32ea09d7860058190555050506200018e565b600081519050620000f98162000174565b92915050565b600080604083850312156200011357600080fd5b60006200012385828601620000e8565b92505060206200013685828601620000e8565b9150509250929050565b60006200014d8262000154565b9050919050565b600073ffffffffffffffffffffffffffffffffffffffff82169050919050565b6200017f8162000140565b81146200018b57600080fd5b50565b611272806200019e6000396000f3fe60806040526004361061009c5760003560e01c80637a112bef116100645780637a112bef146101ac578063ad3d20b9146101e9578063e77439c914610212578063f8e78e9a1461022e578063fdab463d14610259578063ff06904d146102845761009c565b80630ac19f39146100a157806318def8ef146100ca57806326987b6014610107578063503371a51461013257806378d3915c1461016f575b600080fd5b3480156100ad57600080fd5b506100c860048036038101906100c39190610aa0565b6102c1565b005b3480156100d657600080fd5b506100f160048036038101906100ec91906109fd565b6104d7565b6040516100fe9190610f4a565b60405180910390f35b34801561011357600080fd5b5061011c6104ef565b6040516101299190610f4a565b60405180910390f35b34801561013e57600080fd5b50610159600480360381019061015491906109fd565b6104f5565b6040516101669190610f4a565b60405180910390f35b34801561017b57600080fd5b5061019660048036038101906101919190610b95565b61050d565b6040516101a39190610eef565b60405180910390f35b3480156101b857600080fd5b506101d360048036038101906101ce9190610b6c565b61053c565b6040516101e09190610f4a565b60405180910390f35b3480156101f557600080fd5b50610210600480360381019061020b9190610b6c565b610554565b005b61022c60048036038101906102279190610a26565b610589565b005b34801561023a57600080fd5b50610243610879565b6040516102509190610f4a565b60405180910390f35b34801561026557600080fd5b5061026e61087f565b60405161027b9190610f4a565b60405180910390f35b34801561029057600080fd5b506102ab60048036038101906102a69190610b95565b610885565b6040516102b89190610f4a565b60405180910390f35b60026000858152602001908152602001600020600082815260200190815260200160002060009054906101000a900460ff1615610333576040517f08c379a000000000000000000000000000000000000000000000000000000000815260040161032a90610f0a565b60405180910390fd5b600860009054906101000a900473ffffffffffffffffffffffffffffffffffffffff1673ffffffffffffffffffffffffffffffffffffffff16635fe8c13b88888860405180608001604052808a8152602001600460008c8152602001908152602001600020548152602001878152602001898152506040518563ffffffff1660e01b81526004016103c79493929190610e61565b60206040518083038186803b1580156103df57600080fd5b505afa1580156103f3573d6000803e3d6000fd5b505050506040513d601f19601f820116820180604052508101906104179190610b43565b610456576040517f08c379a000000000000000000000000000000000000000000000000000000000815260040161044d90610f2a565b60405180910390fd5b600160026000868152602001908152602001600020600083815260200190815260200160002060006101000a81548160ff0219169083151502179055508260036000868152602001908152602001600020600084815260200190815260200160002060008282546104c791906110b2565b9250508190555050505050505050565b60006020528060005260406000206000915090505481565b60065481565b60016020528060005260406000206000915090505481565b60026020528160005260406000206020528060005260406000206000915091509054906101000a900460ff1681565b60046020528060005260406000206000915090505481565b60096000815461056390611150565b919050819055506005546004600060095481526020019081526020016000208190555050565b60008060003373ffffffffffffffffffffffffffffffffffffffff1673ffffffffffffffffffffffffffffffffffffffff168152602001908152602001600020541415610628576006600081546105df90611150565b9190508190556000803373ffffffffffffffffffffffffffffffffffffffff1673ffffffffffffffffffffffffffffffffffffffff168152602001908152602001600020819055505b600760009054906101000a900473ffffffffffffffffffffffffffffffffffffffff1673ffffffffffffffffffffffffffffffffffffffff166334baeab98686866040518060a0016040528060055481526020018881526020016000803373ffffffffffffffffffffffffffffffffffffffff1673ffffffffffffffffffffffffffffffffffffffff16815260200190815260200160002054815260200134600160003373ffffffffffffffffffffffffffffffffffffffff1673ffffffffffffffffffffffffffffffffffffffff1681526020019081526020016000205461071191906110b2565b8152602001878152506040518563ffffffff1660e01b81526004016107399493929190610ea8565b60206040518083038186803b15801561075157600080fd5b505afa158015610765573d6000803e3d6000fd5b505050506040513d601f19601f820116820180604052508101906107899190610b43565b61079257600080fd5b34600160003373ffffffffffffffffffffffffffffffffffffffff1673ffffffffffffffffffffffffffffffffffffffff16815260200190815260200160002060008282546107e191906110b2565b9250508190555081600581905550806000803373ffffffffffffffffffffffffffffffffffffffff1673ffffffffffffffffffffffffffffffffffffffff168152602001908152602001600020543373ffffffffffffffffffffffffffffffffffffffff167f5429acfa1bb2f4dabe79b6340b7d91d801c2d985aabad7148c2476bbd9421cf860405160405180910390a45050505050565b60095481565b60055481565b6003602052816000526040600020602052806000526040600020600091509150505481565b60006108bd6108b884610f96565b610f65565b905080828560408602820111156108d357600080fd5b60005b8581101561090357816108e988826109ac565b8452602084019350604083019250506001810190506108d6565b5050509392505050565b600061092061091b84610fbc565b610f65565b9050808285602086028201111561093657600080fd5b60005b85811015610966578161094c88826109e8565b845260208401935060208301925050600181019050610939565b5050509392505050565b60008135905061097f816111f7565b92915050565b600082601f83011261099657600080fd5b60026109a38482856108aa565b91505092915050565b600082601f8301126109bd57600080fd5b60026109ca84828561090d565b91505092915050565b6000815190506109e28161120e565b92915050565b6000813590506109f781611225565b92915050565b600060208284031215610a0f57600080fd5b6000610a1d84828501610970565b91505092915050565b60008060008060006101408688031215610a3f57600080fd5b6000610a4d888289016109ac565b9550506040610a5e88828901610985565b94505060c0610a6f888289016109ac565b935050610100610a81888289016109e8565b925050610120610a93888289016109e8565b9150509295509295909350565b6000806000806000806000610180888a031215610abc57600080fd5b6000610aca8a828b016109ac565b9750506040610adb8a828b01610985565b96505060c0610aec8a828b016109ac565b955050610100610afe8a828b016109e8565b945050610120610b108a828b016109e8565b935050610140610b228a828b016109e8565b925050610160610b348a828b016109e8565b91505092959891949750929550565b600060208284031215610b5557600080fd5b6000610b63848285016109d3565b91505092915050565b600060208284031215610b7e57600080fd5b6000610b8c848285016109e8565b91505092915050565b60008060408385031215610ba857600080fd5b6000610bb6858286016109e8565b9250506020610bc7858286016109e8565b9150509250929050565b6000610bdd8383610c58565b60408301905092915050565b6000610bf58383610e43565b60208301905092915050565b610c0a8161100a565b610c14818461106a565b9250610c1f82610fe2565b8060005b83811015610c50578151610c378782610bd1565b9650610c4283611036565b925050600181019050610c23565b505050505050565b610c6181611015565b610c6b8184611075565b9250610c7682610fec565b8060005b83811015610ca7578151610c8e8782610be9565b9650610c9983611043565b925050600181019050610c7a565b505050505050565b610cb881611015565b610cc28184611080565b9250610ccd82610fec565b8060005b83811015610cfe578151610ce58782610be9565b9650610cf083611043565b925050600181019050610cd1565b505050505050565b610d0f81611020565b610d19818461108b565b9250610d2482610ff6565b8060005b83811015610d55578151610d3c8782610be9565b9650610d4783611050565b925050600181019050610d28565b505050505050565b610d668161102b565b610d708184611096565b9250610d7b82611000565b8060005b83811015610dac578151610d938782610be9565b9650610d9e8361105d565b925050600181019050610d7f565b505050505050565b610dbd8161111a565b82525050565b6000610dd0600a836110a1565b91507f657869737420766f7465000000000000000000000000000000000000000000006000830152602082019050919050565b6000610e106010836110a1565b91507f77726f6e672070726f6f6620766f7465000000000000000000000000000000006000830152602082019050919050565b610e4c81611146565b82525050565b610e5b81611146565b82525050565b600061018082019050610e776000830187610caf565b610e846040830186610c01565b610e9160c0830185610caf565b610e9f610100830184610d06565b95945050505050565b60006101a082019050610ebe6000830187610caf565b610ecb6040830186610c01565b610ed860c0830185610caf565b610ee6610100830184610d5d565b95945050505050565b6000602082019050610f046000830184610db4565b92915050565b60006020820190508181036000830152610f2381610dc3565b9050919050565b60006020820190508181036000830152610f4381610e03565b9050919050565b6000602082019050610f5f6000830184610e52565b92915050565b6000604051905081810181811067ffffffffffffffff82111715610f8c57610f8b6111c8565b5b8060405250919050565b600067ffffffffffffffff821115610fb157610fb06111c8565b5b602082029050919050565b600067ffffffffffffffff821115610fd757610fd66111c8565b5b602082029050919050565b6000819050919050565b6000819050919050565b6000819050919050565b6000819050919050565b600060029050919050565b600060029050919050565b600060049050919050565b600060059050919050565b6000602082019050919050565b6000602082019050919050565b6000602082019050919050565b6000602082019050919050565b600081905092915050565b600081905092915050565b600081905092915050565b600081905092915050565b600081905092915050565b600082825260208201905092915050565b60006110bd82611146565b91506110c883611146565b9250827fffffffffffffffffffffffffffffffffffffffffffffffffffffffffffffffff038211156110fd576110fc611199565b5b828201905092915050565b600061111382611126565b9050919050565b60008115159050919050565b600073ffffffffffffffffffffffffffffffffffffffff82169050919050565b6000819050919050565b600061115b82611146565b91507fffffffffffffffffffffffffffffffffffffffffffffffffffffffffffffffff82141561118e5761118d611199565b5b600182019050919050565b7f4e487b7100000000000000000000000000000000000000000000000000000000600052601160045260246000fd5b7f4e487b7100000000000000000000000000000000000000000000000000000000600052604160045260246000fd5b61120081611108565b811461120b57600080fd5b50565b6112178161111a565b811461122257600080fd5b50565b61122e81611146565b811461123957600080fd5b5056fea2646970667358221220eba7a79fa6ac6b2f95e5a8a0a731295429ce9c39b605e375a65d29c06bbe2c0764736f6c63430008000033",
  "linkReferences": {},
  "deployedLinkReferences": {}
}